:020000040800F2
:100000007806002089010008EB030008E3030008DC
:10001000E703000845020008BF0D000800000000CB
:10002000000000000000000000000000B104000813
:100030006F0200080000000013040008F508000823
:10004000A3010008A3010008A3010008A301000800
:10005000A3010008A3010008A3010008A3010008F0
:10006000A3010008A3010008A3010008A3010008E0
:10007000A3010008A3010008A3010008A3010008D0
:10008000A3010008A3010008A3010008A3010008C0
:10009000A3010008A3010008A3010008A3010008B0
:1000A000A3010008A3010008A3010008A3010008A0
:1000B000A3010008A3010008A3010008A301000890
:1000C000A3010008A3010008A3010008A301000880
:1000D000A3010008A3010008A3010008A301000870
:1000E000A3010008A3010008A301000800F002F822
:1000F00000F03AF80AA090E8000C82448344AAF188
:100100000107DA4501D100F02FF8AFF2090EBAE885
:100110000F0013F0010F18BFFB1A43F0010318473B
:100120001C0E00003C0E0000103A24BF78C878C1B5
:10013000FAD8520724BF30C830C144BF04680C60ED
:10014000704700000023002400250026103A28BF35
:1001500078C1FBD8520728BF30C148BF0B60704739
:100160001FB51FBD10B510BD00F031F81146FFF7E7
:10017000F7FF00F02FFE00F04FF803B4FFF7F2FF97
:1001800003BC00F059F800000948804709480047BF
:10019000FEE7FEE7FEE7FEE7FEE7FEE7FEE7FEE737
:1001A000FEE7FEE704480549054A064B7047000094
:1001B000F9080008ED00000878000020780600200B
:1001C000780200207802002070477047704775461B
:1001D00000F02CF8AE4605006946534620F00700B3
:1001E000854618B020B5FFF7DDFFBDE820404FF091
:1001F00000064FF000074FF000084FF0000B21F011
:100200000701AC46ACE8C009ACE8C009ACE8C009DD
:10021000ACE8C0098D46704710B50446AFF30080C6
:100220002046BDE81040FFF7A8BF00000048704717
:10023000140000207047000001491820ABBEFEE703
:100240002600020000BFFEE73EB5002000900190AE
:10025000029000F0B6FD002404E01DF8040000F058
:100260004DFE641C0C2CF8DB00F0B0FD3EBD704769
:1002700008B54FF40050ADF8000003208DF80200DF
:1002800010208DF803006946054800F00DF8A02005
:10029000ADF800006946034800F006F808BD00000C
:1002A000000C0140000801402DE9F0410246002504
:1002B0000026002000230024002791F803C00CF042
:1002C0000F0591F803C00CF0100CBCF1000F03D027
:1002D00091F802C04CEA050591F800C0BCF1000F8E
:1002E00031D0146800202BE04FF0010C0CFA00F321
:1002F000B1F800C00CEA03069E4220D183004FF003
:100300000F0C0CFA03F7BC4305FA03FC4CEA040497
:1003100091F803C0BCF1280F06D14FF0010C0CFA84
:1003200000FCC2F814C00AE091F803C0BCF1480F09
:1003300005D14FF0010C0CFA00FCC2F810C0401CB3
:100340000828D1D31460B1F800C0BCF1FF0F34DD30
:10035000546800202EE000F1080C4FF0010808FA64
:100360000CF3B1F800C00CEA03069E4221D18300D1
:100370004FF00F0C0CFA03F7BC4305FA03FC4CEAF0
:10038000040491F803C0BCF1280F05D100F1080C5A
:1003900008FA0CF8C2F8148091F803C0BCF1480FB9
:1003A00007D100F1080C4FF0010808FA0CF8C2F868
:1003B0001080401C0828CED35460BDE8F08102466E
:1003C0000020D3680B400BB1012000E000207047F3
:1003D00041617047016170470AB1016100E041610C
:1003E000704700BFFEE700BFFEE7704710B51C2056
:1003F00000F004F81D2000F001F810BD00F01F020D
:10040000012191404209920002F1E022C2F800115C
:100410007047704729B1064AD2690243044BDA613A
:1004200004E0034AD2698243014BDA61704700005D
:100430000010024029B1064A12690243044B1A61B6
:1004400004E0034A12698243014B1A6170470000BD
:100450000010024029B1064A92690243044B9A6196
:1004600004E0034A92698243014B9A61704700009D
:100470000010024029B1064AD2680243044BDA60F8
:1004800004E0034AD2688243014BDA6070470000FF
:100490000010024010B501210820FFF7DBFF012109
:1004A0000420FFF7D7FF01210846FFF7B3FF10BD77
:1004B000704710B500F002F810BD00000CB5002028
:1004C000019000903348006840F480303149086062
:1004D00000BF3048006800F4003000900198401CD4
:1004E0000190009818B90198B0F5A06FF1D1294892
:1004F000006800F4003010B10120009001E00020FD
:1005000000900098012843D12348006840F0100073
:10051000214908600846006820F00300086008468A
:10052000006840F0020008601A48406819494860B5
:100530000846406848600846406840F4806048606B
:100540000846406820F47C1048600846406840F443
:10055000E81048600846006840F08070086000BFFE
:100560000C48006800F000700028F9D00948406885
:1005700020F00300074948600846406840F0020048
:10058000486000BF0348406800F00C000828F9D11B
:100590000CBD000000100240002002402DE9F04F89
:1005A00095B005460E469346DDE91E78280C40EAD4
:1005B0000640C4B2280A40EA066000F0FF0905F0D0
:1005C000FF0A380C40EA0840C0B21490380A40EAEA
:1005D0000860C0B21390F8B2129012988DF84400DF
:1005E00013988DF8450014988DF8460000200E9061
:1005F0000F9010908DF838A08DF839908DF83A4012
:100600008DF83BA08DF83C908DF83D408DF83EA0D4
:100610008DF83F908DF840400B900C900D908DF828
:100620002CA08DF82D908DF82E408DF82FA08DF8F0
:1006300030908DF831408DF832A08DF833908DF8E0
:100640003440089009900A908DF820A08DF82190F0
:100650008DF822408DF823A08DF824908DF8254048
:100660008DF826A08DF827908DF8284005900690EB
:1006700007908DF814A08DF815908DF816408DF820
:1006800017A08DF818908DF819408DF81AA08DF8E4
:100690001B908DF81C400290039004908DF808A0E8
:1006A0008DF809908DF80A408DF80BA08DF80C900C
:1006B0008DF80D408DF80EA08DF80F908DF810403C
:1006C000BBF1010F09D1062005E0811F11AA515C81
:1006D00002AA1154401C0928F7DBBBF1020F09D113
:1006E000032005E0C11E11AA515C02AA1154401C4E
:1006F0000628F7DBBBF1030F08D1002004E011A9A5
:10070000095C02AA1154401C0328F8DBBBF1040F5A
:1007100009D1062005E0811F11AA515C05AA1154D8
:10072000401C0928F7DBBBF1050F09D1032005E0C8
:10073000C11E11AA515C05AA1154401C0628F7DB02
:10074000BBF1060F08D1002004E011A9095C05AA3D
:100750001154401C0328F8DBBBF1070F09D1062018
:1007600005E0811F11AA515C08AA1154401C0928F8
:10077000F7DBBBF1080F09D1032005E0C11E11AA68
:10078000515C08AA1154401C0628F7DBBBF1090F85
:1007900008D1002004E011A9095C08AA1154401CEA
:1007A0000328F8DBBBF10A0F09D1062005E0811F01
:1007B00011AA515C0BAA1154401C0928F7DBBBF1AC
:1007C0000B0F09D1032005E0C11E11AA515C0BAA31
:1007D0001154401C0628F7DBBBF10C0F08D1002098
:1007E00004E011A9095C0BAA1154401C0328F8DB92
:1007F000FFF72AFD00F0E5FA0020019007E00BAAC0
:100800000199505C00F07AFB0198401C019001981E
:100810000C28F4DB00F0DAFA00F0D3FA00200190A3
:1008200007E008AA0199505C00F068FB0198401CA1
:10083000019001980C28F4DB00F0C8FA00F0C1FA2E
:100840000020019007E005AA0199505C00F056FBDA
:100850000198401C019001980C28F4DB00F0B6FAD6
:1008600000F0AFFA0020019007E002AA0199505C65
:1008700000F044FB0198401C019001980C28F4DB27
:1008800000F0A4FA15B0BDE8F08F000030B51648AE
:1008900000684FF47A72B0FBF2F1B1F1807F01D3BE
:1008A00001201DE021F07F40401E4FF0E02250610A
:1008B00050170F22002807DA13071D0E0B4B00F00C
:1008C0000F04241F1D5503E013071C0E084B1C5476
:1008D00000BF00204FF0E02290610720106100204F
:1008E00008B100BFFEE730BD0000002018ED00E0B9
:1008F00000E400E07047000010B51348006840F0C5
:1009000001001149086008464068104908400E4936
:100910004860084600680E4908400B4908600846D0
:10092000006820F4802008600846406820F4FE003B
:1009300048604FF41F008860FFF7BBFD4FF0006078
:100940000449086010BD0000001002400000FFF8DC
:10095000FFFFF6FE08ED00E021B1028842F001023F
:10096000028004E002884FF6FE731A40028070474E
:100970000EB54FF0804000F02FF81020ADF80200C7
:100980004FF6FF10ADF800008011ADF80400002014
:10099000ADF806008DF8080069464FF0804000F081
:1009A0001DF901220221480700F00DF9094800F065
:1009B00013F83F20ADF800004FF47A70ADF8040052
:1009C0006946044800F00AF901220421014800F0B8
:1009D000FAF80EBD0004004010B504466848844291
:1009E00008D10121C014FFF745FD0021E014FFF7F5
:1009F00041FDC4E0B4F1804F08D101210846FFF762
:100A000019FD00210120FFF715FDB8E05D48844283
:100A100008D101210220FFF70DFD00210220FFF780
:100A200009FDACE05848844208D101210420FFF7B9
:100A300001FD00210420FFF7FDFCA0E053488442A3
:100A400008D101210820FFF7F5FC00210820FFF75D
:100A5000F1FC94E04E48844208D101211020FFF7B8
:100A6000E9FC00211020FFF7E5FC88E049488442BA
:100A700008D101212020FFF7DDFC00212020FFF715
:100A8000D9FC7CE04448844208D101214014FFF79E
:100A9000F1FC00216014FFF7EDFC70E03F48844258
:100AA00009D10121C804FFF7E5FC00214FF4002023
:100AB000FFF7E0FC63E03A48844209D101210805D0
:100AC000FFF7D8FC00214FF48010FFF7D3FC56E06D
:100AD0003448844209D101214805FFF7CBFC0021AD
:100AE0004FF40010FFF7C6FC49E02F48844208D1BC
:100AF00001214020FFF79EFC00214020FFF79AFCD7
:100B00003DE02A48844208D101218020FFF792FC71
:100B100000218020FFF78EFC31E02548844208D177
:100B200001218015FFF786FC0021A015FFF782FC4C
:100B300025E02048844209D101210804FFF79AFCEE
:100B400000214FF48030FFF795FC18E01A488442EA
:100B500009D101214804FFF78DFC00214FF400303A
:100B6000FFF788FC0BE01548844208D10121880476
:100B7000FFF780FC00214FF48020FFF77BFC10BDC5
:100B8000002C01400004004000080040000C004020
:100B9000001000400014004000340140004C0140AF
:100BA000005001400054014000180040001C00406B
:100BB0000020004000400140004401400048014046
:100BC0000146888C70471AB183890B43838102E008
:100BD00083898B4383817047818470470022028818
:100BE0001D4B98420ED01D4B98420BD0B0F1804F58
:100BF00008D01B4B984205D01A4B984202D01A4B92
:100C0000984204D14FF68F731A404B881A43174B02
:100C1000984207D0164B984204D04FF6FF431A4033
:100C2000CB881A4302808B8883850B8803850A4B07
:100C300098420BD0094B984208D00E4B984205D0F1
:100C40000D4B984202D00D4B984201D10B7A03868E
:100C50000123838270470000002C014000340140D2
:100C60000004004000080040000C0040001000405C
:100C70000014004000400140004401400048014091
:100C800030B58FB0054600200C900D900E9032A12B
:100C9000D1E900028968CDE90A21099031A207CA89
:100CA00006AB07C332A207CA03AB07C333A207CA06
:100CB0008DE80700012D06D0022D12D0032D1ED085
:100CC000042D38D129E000F07CF8002404E009A9C3
:100CD000085D00F013F9641C0C2CF8DB00F076F8CA
:100CE00037E000F06EF8002404E006A9085D00F08B
:100CF00005F9641C0C2CF8DB00F068F829E000F022
:100D000060F8002404E003A9085D00F0F7F8641C13
:100D10000C2CF8DB00F05AF81BE000F052F800242D
:100D200004E01DF8040000F0E9F8641C0C2CF8DB6A
:100D300000F04CF80DE000F044F8002404E00CA9A9
:100D4000085D00F0DBF8641C0C2CF8DB00F03EF8CA
:100D500000BF00BF0FB030BD010000000100000067
:100D6000010000000100010101000001010000007C
:100D7000000101010100010001000000000001006C
:100D8000010001000000000070B5044644B90025D0
:100D900003E00020FFF774FF6D1C042DF9DB0CE06D
:100DA0000120FFF76DFF0220FFF76AFF0320FFF726
:100DB00067FF0420FFF764FF00BF00BF70BD00BFE6
:100DC000FEE710B5002000F099F810BD10B500F056
:100DD0005BF810BD86B0FFF75DFBFFF757FDFFF72F
:100DE00047FAFFF703FBFFF7C3FDFFF72DFA0020DB
:100DF000FFF7CAFF23E04FF4FA7000F02BF84FF42E
:100E000000510F48FFF7DBFA08B9012000E000208D
:100E100005462A464FF400510948FFF7DDFA09A2BA
:100E200007CA03AB07C307244FF4803100200C220C
:100E3000CDE9001006480021FFF7B0FB00BFDAE75C
:100E4000000C01400302010605040908070C0B0A07
:100E50000101010070B50446A5B201218807FFF722
:100E60007BFD29464FF08040FFF7B6FE04E04FF0CF
:100E70008040FFF7A5FE0546012DF8DC00214FF06C
:100E80008040FFF769FD70BD10B5002280210D483C
:100E9000FFF7A2FA0120FFF7DDFF00240EE080211A
:100EA0000848FFF797FAFA2000F00EF8802105486D
:100EB000FFF78EFAFA2000F007F8641C042CEEDB32
:100EC00010BD00000008014070B50446A5B2012124
:100ED0000948FFF741FD29460748FFF77DFE03E07B
:100EE0000548FFF76DFE0546012DF9DC002102489B
:100EF000FFF732FD70BD00000004004070B50546EC
:100F00000F2416E045FA04F000F0010280210A489F
:100F1000FFF762FA20210848FFF751FA08B90120CB
:100F200000E000200646324620210348FFF754FA2D
:100F3000641E002CE6DA70BD000801405C0F00085A
:100F4000000000201400000028010008700F0008B5
:100F500014000020640600004401000800A24A04B6
:100F60000000000000000000010203040607080959
:04000005080000ED02
:00000001FF
