:020000040800F2
:1000000090080020890100081B0400081304000860
:100010001704000845020008E70E00080000000071
:100020000000000000000000000000004D06000875
:100030006F02000800000000D1040008A1070008BA
:10004000A3010008A3010008A3010008A301000800
:10005000A3010008A3010008A3010008A3010008F0
:10006000A3010008A3010008A3010008A3010008E0
:10007000A3010008A3010008A3010008A3010008D0
:10008000A3010008A3010008A3010008A3010008C0
:10009000A3010008A3010008A3010008A3010008B0
:1000A000A3010008A3010008A3010008A3010008A0
:1000B000A3010008A3010008A3010008A301000890
:1000C000A3010008A3010008A3010008A301000880
:1000D000A3010008C10C0008A3010008A301000847
:1000E000A3010008A3010008A301000800F002F822
:1000F00000F03AF80AA090E8000C82448344AAF188
:100100000107DA4501D100F02FF8AFF2090EBAE885
:100110000F0013F0010F18BFFB1A43F0010318473B
:10012000180F0000380F0000103A24BF78C878C1BB
:10013000FAD8520724BF30C830C144BF04680C60ED
:10014000704700000023002400250026103A28BF35
:1001500078C1FBD8520728BF30C148BF0B60704739
:100160001FB51FBD10B510BD00F031F81146FFF7E7
:10017000F7FF00F0C3FE00F04FF803B4FFF7F2FF03
:1001800003BC00F059F800000948804709480047BF
:10019000FEE7FEE7FEE7FEE7FEE7FEE7FEE7FEE737
:1001A000FEE7FEE704480549054A064B7047000094
:1001B000A5070008ED00000890020020900800202C
:1001C00090040020900400207047704770477546E7
:1001D00000F02CF8AE4605006946534620F00700B3
:1001E000854618B020B5FFF7DDFFBDE820404FF091
:1001F00000064FF000074FF000084FF0000B21F011
:100200000701AC46ACE8C009ACE8C009ACE8C009DD
:10021000ACE8C0098D46704710B50446AFF30080C6
:100220002046BDE81040FFF7A8BF00000048704717
:100230002C0200207047000001491820ABBEFEE7E9
:100240002600020000BFFEE73EB5002000900190AE
:10025000029000F04AFE002404E01DF8040000F0C3
:10026000CBFE641C0C2CF8DB00F044FE3EBD704756
:1002700008B54FF40050ADF8000003208DF80200DF
:1002800010208DF803006946114800F025F8A020E1
:10029000ADF8000069460F4800F01EF84FF40070FA
:1002A000ADF8000018208DF8030003208DF802003F
:1002B0006946084800F010F84FF48060ADF800007F
:1002C00004208DF803006946024800F005F808BDD7
:1002D000000C0140000801402DE9F04102460025D4
:1002E0000026002000230024002791F803C00CF012
:1002F0000F0591F803C00CF0100CBCF1000F03D0F7
:1003000091F802C04CEA050591F800C0BCF1000F5D
:1003100031D0146800202BE04FF0010C0CFA00F3F0
:10032000B1F800C00CEA03069E4220D183004FF0D2
:100330000F0C0CFA03F7BC4305FA03FC4CEA040467
:1003400091F803C0BCF1280F06D14FF0010C0CFA54
:1003500000FCC2F814C00AE091F803C0BCF1480FD9
:1003600005D14FF0010C0CFA00FCC2F810C0401C83
:100370000828D1D31460B1F800C0BCF1FF0F34DD00
:10038000546800202EE000F1080C4FF0010808FA34
:100390000CF3B1F800C00CEA03069E4221D18300A1
:1003A0004FF00F0C0CFA03F7BC4305FA03FC4CEAC0
:1003B000040491F803C0BCF1280F05D100F1080C2A
:1003C00008FA0CF8C2F8148091F803C0BCF1480F89
:1003D00007D100F1080C4FF0010808FA0CF8C2F838
:1003E0001080401C0828CED35460BDE8F08102463E
:1003F0000020D3680B400BB1012000E000207047C3
:1004000041617047016170470AB1016100E04161DB
:10041000704700BFFEE700BFFEE7704708B51C202D
:1004200000F012F81D2000F00FF825208DF80000D4
:1004300000208DF8020001208DF801008DF80300E6
:10044000684600F00DF808BD00F01F020121914040
:100450004209920002F1E022C2F800117047000048
:1004600070B5002100230F22C47804B3154C246812
:1004700004F4E064C4F5E064210AC1F10403CA4055
:10048000447804FA03F184781440214309010E4CA6
:100490000678A155047804F01F050124AC400578C6
:1004A0006D11AD0005F1E025C5F8004109E00478C3
:1004B00004F01F050124AC40044D0678761145F880
:1004C000264070BD0CED00E000E400E080E100E0BB
:1004D0007047000029B1064AD2690243044BDA6131
:1004E00004E0034AD2698243014BDA61704700009D
:1004F0000010024029B1064A12690243044B1A61F6
:1005000004E0034A12698243014B1A6170470000FC
:100510000010024029B1064A92690243044B9A61D5
:1005200004E0034A92698243014B9A6170470000DC
:100530000010024029B1064AD2680243044BDA6037
:1005400004E0034AD2688243014BDA60704700003E
:100550000010024010B501210820FFF7DBFF012148
:100560000420FFF7D7FF01210846FFF7B3FF012161
:100570008803FFF7CFFF10BD30B500210022002413
:1005800000232D4D6D6805F00C0121B1042905D023
:10059000082923D105E0294D056022E0274D05609B
:1005A0001FE0254D6D6805F47012234D6D6805F44C
:1005B0008034022505EB92421CB9214D554305605C
:1005C0000BE01D4D6D6805F400351DB11C4D554304
:1005D000056002E0194D5543056002E0174D0560C6
:1005E00000BF00BF144D6D6805F0F0010909154DFD
:1005F0006B5C0568DD4045600F4D6D6805F4E0619A
:10060000090A104D6B5C4568DD4085600A4D6D68D8
:1006100005F46051C90A0B4D6B5C4568DD40C5604F
:10062000054D6D6805F44041890B074D6B5CC5684D
:10063000B5FBF3F5056130BD0010024000127A00F1
:1006400000093D000400002014000020704710B590
:1006500000F002F810BD00000CB5002001900090E1
:100660003348006840F480303149086000BF3048AA
:10067000006800F4003000900198401C0190009840
:1006800018B90198B0F5A06FF1D12948006800F4BD
:10069000003010B10120009001E00020009000988F
:1006A000012843D12348006840F010002149086028
:1006B0000846006820F0030008600846006840F023
:1006C000020008601A4840681949486008464068B6
:1006D00048600846406840F48060486008464068CA
:1006E00020F47C1048600846406840F4E8104860F8
:1006F0000846006840F08070086000BF0C48006841
:1007000000F000700028F9D00948406820F003008C
:10071000074948600846406840F00200486000BF52
:100720000348406800F00C000828F9D10CBD000017
:10073000001002400020024030B5164800684FF417
:100740007A72B0FBF2F1B1F1807F01D301201DE09C
:1007500021F07F40401E4FF0E022506150170F22E1
:10076000002807DA13071D0E0B4B00F00F04241F9F
:100770001D5503E013071C0E084B1C5400BF00203E
:100780004FF0E022906107201061002008B100BF07
:10079000FEE730BD1800002018ED00E000E400E0A6
:1007A0007047000010B51348006840F0010011497F
:1007B000086008464068104908400E4948600846ED
:1007C00000680E4908400B4908600846006820F49C
:1007D000802008600846406820F4FE0048604FF41E
:1007E0001F008860FFF733FF4FF000600449086086
:1007F00010BD0000001002400000FFF8FFFFF6FEF1
:1008000008ED00E021B1028842F00102028004E01C
:1008100002884FF6FE731A40028070470EB54FF003
:10082000804000F02FF81020ADF802004FF6FF10C6
:10083000ADF800008011ADF804000020ADF806000E
:100840008DF8080069464FF0804000F01DF9012244
:100850000221480700F00DF9094800F013F83F2085
:10086000ADF800004FF47A70ADF804006946044812
:1008700000F00AF901220421014800F0FAF80EBD47
:100880000004004010B504466848844208D10121A4
:10089000C014FFF74FFE0021E014FFF74BFEC4E049
:1008A000B4F1804F08D101210846FFF723FE002153
:1008B0000120FFF71FFEB8E05D48844208D1012106
:1008C0000220FFF717FE00210220FFF713FEACE025
:1008D0005848844208D101210420FFF70BFE002173
:1008E0000420FFF707FEA0E05348844208D101210D
:1008F0000820FFF7FFFD00210820FFF7FBFD94E033
:100900004E48844208D101211020FFF7F3FD002159
:100910001020FFF7EFFD88E04948844208D101210B
:100920002020FFF7E7FD00212020FFF7E3FD7CE01A
:100930004448844208D101214014FFF7FBFD002107
:100940006014FFF7F7FD70E03F48844209D10121B0
:10095000C804FFF7EFFD00214FF40020FFF7EAFD88
:1009600063E03A48844209D101210805FFF7E2FD1E
:1009700000214FF48010FFF7DDFD56E0344884423B
:1009800009D101214805FFF7D5FD00214FF40010E2
:10099000FFF7D0FD49E02F48844208D101214020D3
:1009A000FFF7A8FD00214020FFF7A4FD3DE02A4805
:1009B000844208D101218020FFF79CFD0021802086
:1009C000FFF798FD31E02548844208D101218015C8
:1009D000FFF790FD0021A015FFF78CFD25E02048D2
:1009E000844209D101210804FFF7A4FD00214FF43E
:1009F0008030FFF79FFD18E01A48844209D1012199
:100A00004804FFF797FD00214FF40030FFF792FDF7
:100A10000BE01548844208D101218804FFF78AFDC4
:100A200000214FF48020FFF785FD10BD002C014010
:100A30000004004000080040000C0040001000408E
:100A40000014004000340140004C014000500140BF
:100A50000054014000180040001C004000200040ED
:100A60000040014000440140004801400146888C9C
:100A700070471AB183890B43838102E083898B43DA
:100A80008381704781847047002202881D4B984201
:100A90000ED01D4B98420BD0B0F1804F08D01B4BAD
:100AA000984205D01A4B984202D01A4B984204D172
:100AB0004FF68F731A404B881A43174B984207D052
:100AC000164B984204D04FF6FF431A40CB881A4386
:100AD00002808B8883850B8803850A4B98420BD054
:100AE000094B984208D00E4B984205D00D4B9842C6
:100AF00002D00D4B984201D10B7A038601238382E9
:100B000070470000002C0140003401400004004008
:100B100000080040000C004000100040001400409D
:100B200000400140004401400048014030B58FB012
:100B3000054600200C900D900E9032A1D1E90002E4
:100B40008968CDE90A21099031A207CA06AB07C31B
:100B500032A207CA03AB07C333A207CA8DE8070056
:100B6000012D06D0022D12D0032D1ED0042D38D118
:100B700029E000F0BAF9002404E009A9085D00F0BA
:100B80003BFA641C0C2CF8DB00F0B4F937E000F001
:100B9000ACF9002404E006A9085D00F02DFA641CFD
:100BA0000C2CF8DB00F0A6F929E000F09EF90024F7
:100BB00004E003A9085D00F01FFA641C0C2CF8DBAC
:100BC00000F098F91BE000F090F9002404E01DF813
:100BD000040000F011FA641C0C2CF8DB00F08AF918
:100BE0000DE000F082F9002404E00CA9085D00F09B
:100BF00003FA641C0C2CF8DB00F07CF900BF00BF8A
:100C00000FB030BD01000000010000000100000035
:100C100001000101010000010100000000010101CB
:100C200001000100010000000000010001000100BE
:100C30000000000070B5044644B9002503E0002020
:100C4000FFF774FF6D1C042DF9DB0CE00120FFF7AA
:100C50006DFF0220FFF76AFF0320FFF767FF042004
:100C6000FFF764FF00BF00BF70BD00001FB5124852
:100C700000900020ADF804004FF40050ADF80600DD
:100C80000020ADF80800ADF80C000420ADF80A0013
:100C900069460A4800F0B6F840F22551074800F0CE
:100CA0004DF8012240F22551044800F086F8012158
:100CB000024800F04CF81FBD90D0030000380140FE
:100CC00010B54FF4B071184800F04DF8012801D16B
:100CD000164908701548007840B14FF4B0711248B9
:100CE00000F041F810B90120114908700F48007850
:100CF000C0B10F480078A8B10E480088B0F5007F59
:100D00000CDA094800F0EAF8C4B20A480188008801
:100D1000401C084A10800848445402E0002005495D
:100D2000088000BF10BD0000003801400000002016
:100D300001000020020000202C00002001F40072BD
:100D4000B2F5007F00D100BFCA430280704721B1D5
:100D5000828942F40052828104E082894DF6FF7359
:100D60001A408281704770B5024600240023002596
:100D7000002040F66A16B14200D100BFC1F342150F
:100D800001F01F03012606FA03F3012D02D1968913
:100D9000334006E0022D02D1168A334001E0968AE4
:100DA00033400C12012606FA04F41688344013B1BD
:100DB0000CB1012000E0002070BDF0B50346002416
:100DC00000260025002040F66A17B94200D100BF76
:100DD0001846C1F3421401F01F06012707FA06F571
:100DE000012C01D10C3004E0022C01D1103000E0C4
:100DF00014301AB107682F43076002E00768AF4359
:100E00000760F0BD2DE9F04786B005460E46002488
:100E1000A24600BFA1460027B08900B100BF2F46FF
:100E20002C8A4CF6FF700440F08804432C82AC8975
:100E30004EF6F3100440B0883189084371890843A5
:100E40000443AC81AC8A4FF6FF400440B0890443B0
:100E5000AC8201A8FFF790FB1F48874202D1DDF862
:100E600010A001E0DDF80CA0A88900F4004040B11A
:100E70000AEBCA0000EB0A1031684900B0FBF1F838
:100E800007E00AEBCA0000EB0A1031688900B0FBEA
:100E9000F1F86420B8FBF0F004012009642101FBA3
:100EA0001089A88900F4004040B1322000EBC9004D
:100EB000B0FBF1F000F00700044308E0322000EB43
:100EC00009106421B0FBF1F000F00F0004432C8105
:100ED00006B0BDE8F0870000003801400146888870
:100EE000C0F30800704700BFFEE710B5002000F017
:100EF00083F810BD10B500F045F810BDFFF72AFBD0
:100F0000FFF71AFCFFF7B4F9FFF7B0FEFFF786FA18
:100F1000FFF784FCFFF798F90020FFF78BFE13E042
:100F20004FF4FA7000F014F84FF400510748FFF73F
:100F30005EFA08B9012000E00020044622464FF482
:100F400000510248FFF760FAEAE70000000C014098
:100F500070B50446A5B201218807FFF753FC294666
:100F60004FF08040FFF78EFD04E04FF08040FFF728
:100F70007DFD0546012DF8DC00214FF08040FFF794
:100F800041FC70BD10B5002280210D48FFF73CFAEE
:100F90000120FFF7DDFF00240EE080210848FFF765
:100FA00031FAFA2000F00EF880210548FFF728FA00
:100FB000FA2000F007F8641C042CEEDB10BD0000E2
:100FC0000008014070B50446A5B201210948FFF7A9
:100FD00019FC29460748FFF755FD03E00548FFF7D0
:100FE00045FD0546012DF9DC00210248FFF70AFC0A
:100FF00070BD00000004004070B505460F2416E0E7
:1010000045FA04F000F0010280210A48FFF7FCF9DC
:1010100020210848FFF7EBF908B9012000E0002083
:101020000646324620210348FFF7EEF9641E002CE5
:10103000E6DA70BD000801405810000800000020EA
:101040002C00000028010008841000082C0000205B
:1010500064080000440100080000000000000000D7
:10106000010203040102030406070809020406083A
:1010700000A24A0400000000000000000102030476
:04108000060708094E
:04000005080000ED02
:00000001FF
