:020000040800F2
:10000000800A002089010008230400081B0400085E
:100010001F04000843020008930D000800000000C0
:100020000000000000000000000000005906000869
:100030006D02000800000000D5040008AD070008AC
:10004000A3010008A3010008A3010008A301000800
:10005000A3010008A3010008A3010008A3010008F0
:10006000A3010008A3010008A3010008A3010008E0
:10007000A3010008A3010008A3010008A3010008D0
:10008000A3010008A3010008A3010008A3010008C0
:10009000A3010008A3010008A3010008A3010008B0
:1000A000A3010008A3010008A3010008A3010008A0
:1000B000A3010008A3010008A3010008A301000890
:1000C000A3010008A3010008A3010008A301000880
:1000D000A3010008A3010008C10B0008A301000848
:1000E000A3010008A3010008A301000800F002F822
:1000F00000F03AF80AA090E8000C82448344AAF188
:100100000107DA4501D100F02FF8AFF2090EBAE885
:100110000F0013F0010F18BFFB1A43F0010318473B
:10012000EC0F00000C100000103A24BF78C878C112
:10013000FAD8520724BF30C830C144BF04680C60ED
:10014000704700000023002400250026103A28BF35
:1001500078C1FBD8520728BF30C148BF0B60704739
:100160001FB51FBD10B510BD00F031F81146FFF7E7
:10017000F7FF00F019FE00F04FF803B4FFF7F2FFAD
:1001800003BC00F057F800000948804709480047C1
:10019000FEE7FEE7FEE7FEE7FEE7FEE7FEE7FEE737
:1001A000FEE7FEE704480549054A064B7047000094
:1001B000B1070008ED00000880040020800A00203C
:1001C0008006002080060020704770477047754603
:1001D00000F02CF8AE4605006946534620F00700B3
:1001E000854618B020B5FFF7DDFFBDE820404FF091
:1001F00000064FF000074FF000084FF0000B21F011
:100200000701AC46ACE8C009ACE8C009ACE8C009DD
:10021000ACE8C0098D46704710B50446AFF30080C6
:100220002046BDE81040FFF7A8BF00000048704717
:100230002004002001491820ABBEFEE72600020082
:10024000704700BFFEE73EB500200090019002908D
:1002500000F0A1FD002404E01DF8040000F036FFCA
:10026000641C0C2CF8DB00F09BFD3EBD70470000C9
:1002700008B54FF40050ADF8000003208DF80200DF
:1002800010208DF803006946134800F029F84FF458
:100290000070ADF8000018208DF8030003208DF8E1
:1002A000020069460D4800F01BF84FF48060ADF87D
:1002B000000004208DF803006946084800F010F89B
:1002C0000820ADF8000004208DF8030069460348BB
:1002D00000F006F808BD0000000C014000080140D5
:1002E0002DE9F041024600250026002000230024CD
:1002F000002791F803C00CF00F0591F803C00CF033
:10030000100CBCF1000F03D091F802C04CEA0505B7
:1003100091F800C0BCF1000F31D0146800202BE030
:100320004FF0010C0CFA00F3B1F800C00CEA030620
:100330009E4220D183004FF00F0C0CFA03F7BC4310
:1003400005FA03FC4CEA040491F803C0BCF1280F41
:1003500006D14FF0010C0CFA00FCC2F814C00AE000
:1003600091F803C0BCF1480F05D14FF0010C0CFA15
:1003700000FCC2F810C0401C0828D1D31460B1F8AA
:1003800000C0BCF1FF0F34DD546800202EE000F106
:10039000080C4FF0010808FA0CF3B1F800C00CEAA1
:1003A00003069E4221D183004FF00F0C0CFA03F795
:1003B000BC4305FA03FC4CEA040491F803C0BCF109
:1003C000280F05D100F1080C08FA0CF8C2F81480C7
:1003D00091F803C0BCF1480F07D100F1080C4FF0B1
:1003E000010808FA0CF8C2F81080401C0828CED387
:1003F0005460BDE8F08102460020D3680B400BB189
:10040000012000E0002070474161704701617047A2
:100410000AB1016100E04161704700BFFEE700BF23
:10042000FEE7704708B51C2000F011F81D2000F011
:100430000EF826208DF8000001208DF802008DF8BE
:1004400001008DF80300684600F00CF808BD00F0CC
:100450001F02012191404209920002F1E022C2F8FC
:100460000011704770B5002100230F22C47804B337
:10047000154C246804F4E064C4F5E064210AC1F179
:100480000403CA40447804FA03F1847814402143F9
:1004900009010E4C0678A155047804F01F050124CB
:1004A000AC4005786D11AD0005F1E025C5F80041BF
:1004B00009E0047804F01F050124AC40044D0678DF
:1004C000761145F8264070BD0CED00E000E400E038
:1004D00080E100E07047000029B1064AD26902437A
:1004E000044BDA6104E0034AD2698243014BDA61CA
:1004F000704700000010024029B1064A1269024309
:10050000044B1A6104E0034A12698243014B1A61E9
:10051000704700000010024029B1064A9269024368
:10052000044B9A6104E0034A92698243014B9A6149
:10053000704700000010024029B1064AD268024309
:10054000044BDA6004E0034AD2688243014BDA606C
:10055000704700000010024010B501210820FFF78D
:10056000DBFF01210420FFF7D7FF01210846FFF739
:10057000B3FF01218803FFF7CFFF01214804FFF7F4
:10058000ABFF10BD30B500210022002400232D4D0B
:100590006D6805F00C0121B1042905D0082923D18B
:1005A00005E0294D056022E0274D05601FE0254D3F
:1005B0006D6805F47012234D6D6805F480340225D2
:1005C00005EB92421CB9214D554305600BE01D4DD2
:1005D0006D6805F400351DB11C4D5543056002E002
:1005E000194D5543056002E0174D056000BF00BF7F
:1005F000144D6D6805F0F0010909154D6B5C056837
:10060000DD4045600F4D6D6805F4E061090A104D4D
:100610006B5C4568DD4085600A4D6D6805F460518E
:10062000C90A0B4D6B5C4568DD40C560054D6D68C2
:1006300005F44041890B074D6B5CC568B5FBF3F5CC
:10064000056130BD0010024000127A0000093D0033
:100650000E0000201E000020704710B500F002F8C8
:1006600010BD00000CB500200190009033480068D8
:1006700040F480303149086000BF3048006800F421
:10068000003000900198401C0190009818B9019822
:10069000B0F5A06FF1D12948006800F4003010B126
:1006A0000120009001E0002000900098012843D133
:1006B0002348006840F0100021490860084600689F
:1006C00020F0030008600846006840F0020008605F
:1006D0001A4840681949486008464068486008461A
:1006E000406840F4806048600846406820F47C1010
:1006F00048600846406840F4E810486008460068D2
:1007000040F08070086000BF0C48006800F0007086
:100710000028F9D00948406820F0030007494860E4
:100720000846406840F00200486000BF0348406847
:1007300000F00C000828F9D10CBD000000100240A8
:100740000020024030B5164800684FF47A72B0FBC2
:10075000F2F1B1F1807F01D301201DE021F07F4053
:10076000401E4FF0E022506150170F22002807DA98
:1007700013071D0E0B4B00F00F04241F1D5503E043
:1007800013071C0E084B1C5400BF00204FF0E02242
:10079000906107201061002008B100BFFEE730BD66
:1007A0002400002018ED00E000E400E070470000A5
:1007B00010B51348006840F0010011490860084670
:1007C0004068104908400E494860084600680E49D4
:1007D00008400B4908600846006820F48020086043
:1007E0000846406820F4FE0048604FF41F0088600F
:1007F000FFF733FF4FF000600449086010BD0000B0
:10080000001002400000FFF8FFFFF6FE08ED00E0D8
:1008100021B1028842F00102028004E002884FF612
:10082000FE731A40028070470EB54FF0804000F012
:100830002FF81020ADF802004FF6FF10ADF80000C1
:100840008011ADF804000020ADF806008DF8080016
:1008500069464FF0804000F01DF90122022148074F
:1008600000F00DF9094800F013F83F20ADF8000042
:100870004FF47A70ADF804006946044800F00AF9B4
:1008800001220421014800F0FAF80EBD00040040E6
:1008900010B504466848844208D10121C014FFF70E
:1008A0004BFE0021E014FFF747FEC4E0B4F1804F97
:1008B00008D101210846FFF71FFE00210120FFF7A4
:1008C0001BFEB8E05D48844208D101210220FFF7F9
:1008D00013FE00210220FFF70FFEACE058488442CF
:1008E00008D101210420FFF707FE00210420FFF7B3
:1008F00003FEA0E05348844208D101210820FFF7FD
:10090000FBFD00210820FFF7F7FD94E04E488442EC
:1009100008D101211020FFF7EFFD00211020FFF783
:10092000EBFD88E04948844208D101212020FFF7EF
:10093000E3FD00212020FFF7DFFD7CE044488442F6
:1009400008D101214014FFF7F7FD00216014FFF7E3
:10095000F3FD70E03F48844209D10121C804FFF74C
:10096000EBFD00214FF40020FFF7E6FD63E03A487D
:10097000844209D101210805FFF7DEFD00214FF473
:100980008010FFF7D9FD56E03448844209D1012197
:100990004805FFF7D1FD00214FF40010FFF7CCFD13
:1009A00049E02F48844208D101214020FFF7A4FDEF
:1009B00000214020FFF7A0FD3DE02A48844208D1F5
:1009C00001218020FFF798FD00218020FFF794FD92
:1009D00031E02548844208D101218015FFF78CFDC4
:1009E0000021A015FFF788FD25E02048844209D1A9
:1009F00001210804FFF7A0FD00214FF48030FFF72C
:100A00009BFD18E01A48844209D101214804FFF7F0
:100A100093FD00214FF40030FFF78EFD0BE01548E9
:100A2000844208D101218804FFF786FD00214FF49C
:100A30008020FFF781FD10BD002C01400004004024
:100A400000080040000C004000100040001400406E
:100A500000340140004C014000500140005401406E
:100A600000180040001C00400020004000400140F1
:100A700000440140004801400146888C70471AB18B
:100A800083890B43838102E083898B438381704791
:100A900081847047002202881D4B98420ED01D4B66
:100AA00098420BD0B0F1804F08D01B4B984205D034
:100AB0001A4B984202D01A4B984204D14FF68F73CA
:100AC0001A404B881A43174B984207D0164B98424E
:100AD00004D04FF6FF431A40CB881A4302808B881C
:100AE00083850B8803850A4B98420BD0094B9842AB
:100AF00008D00E4B984205D00D4B984202D00D4BBA
:100B0000984201D10B7A038601238382704700004B
:100B1000002C014000340140000400400008004067
:100B2000000C004000100040001400400040014054
:100B300000440140004801401FB54FF4165000909A
:100B40000020ADF80400ADF80600ADF80800ADF8DF
:100B50000C000C20ADF80A006946164800F0A4F815
:100B6000154800900020ADF804004FF40050ADF897
:100B700006000020ADF80800ADF80C000420ADF828
:100B80000A0069460D4800F08FF840F225510B48E5
:100B900000F042F8012240F22551084800F05EF8CA
:100BA0000121044800F041F80121044800F03DF81B
:100BB0001FBD00000038014090D0030000440040F9
:100BC00010B50221104800F03CF840B100200F4958
:100BD00008800F49088002210B4800F01DF800BF73
:100BE0002021094800F02DF80028F9D0064800F02F
:100BF000C7F8C1B2064802880088401C044B188020
:100C00000448815410BD0000004400400C00002046
:100C1000040000203800002001F40072B2F5007FCB
:100C200000D100BFCA430280704721B1828942F4DB
:100C30000052828104E082894DF6FF731A4082815E
:100C4000704702460020B1F5007F00D100BF138835
:100C50000B400BB1012000E000207047F0B50346C7
:100C6000002400260025002040F66A17B94200D172
:100C700000BF1846C1F3421401F01F06012707FA0E
:100C800006F5012C01D10C3004E0022C01D110300A
:100C900000E014301AB107682F43076002E00768CC
:100CA000AF430760F0BD00002DE9F04786B0054670
:100CB0000E460024A24600BFA1460027B08900B11D
:100CC00000BF2F462C8A4CF6FF700440F088044386
:100CD0002C82AC894EF6F3100440B0883189084369
:100CE000718908430443AC81AC8A4FF6FF4004404D
:100CF000B0890443AC8201A8FFF744FC1F48874237
:100D000002D1DDF810A001E0DDF80CA0A88900F404
:100D1000004040B10AEBCA0000EB0A1031684900FC
:100D2000B0FBF1F807E00AEBCA0000EB0A103168EB
:100D30008900B0FBF1F86420B8FBF0F00401200951
:100D4000642101FB1089A88900F4004040B13220E1
:100D500000EBC900B0FBF1F000F00700044308E02D
:100D6000322000EB09106421B0FBF1F000F00F001D
:100D700004432C8106B0BDE8F08700000038014034
:100D800001468888C0F308007047C1F308028280DA
:100D9000704700BFFEE710B5002000F097F910BDC6
:100DA00010B500F05DF810BDFFF7D6FBFFF7CAFCE9
:100DB000FFF75EFAFFF7C0FEFFF734FBFFF734FDE5
:100DC0004FF47A7000F032F8FFF73DFA1449002032
:100DD00000F066F800224FF400711248FFF718FB8C
:100DE0001CE00F4890F823100F48FFF7CEFF642057
:100DF00000F01CF84FF400510A48FFF7FCFA08B95C
:100E0000012000E00020044622464FF4005105482E
:100E1000FFF7FEFA0249012000F042F8E1E7000086
:100E200038000020000C01400038014070B5044635
:100E3000A5B201218807FFF7EBFC29464FF080405F
:100E4000FFF726FE04E04FF08040FFF715FE054651
:100E5000012DF8DC00214FF08040FFF7D9FC70BD78
:100E600010B5002280210D48FFF7D2FA0120FFF7CC
:100E7000DDFF00240EE080210848FFF7C7FAFA20C2
:100E800000F00AF980210548FFF7BEFAFA2000F0C9
:100E900003F9641C042CEEDB10BD000000080140C7
:100EA00070B504460D464CB9002604E000212846E2
:100EB00000F017F8761C042EF8DB10E0012128461C
:100EC00000F00FF80221284600F00BF80321284615
:100ED00000F007F80421284600F003F800BF00BF27
:100EE00070BD70B590B004460E4600200D900E9077
:100EF0000F900A900B900C9020798DF82800E078E4
:100F00008DF82900A0788DF82A00E0798DF82B0063
:100F1000A0798DF82C0060798DF82D00A07A8DF8DD
:100F20002E00607A8DF82F00207A8DF83000002096
:100F3000079008900990607B8DF81C00207B8DF84D
:100F40001D00E07A8DF81E00207C8DF81F00E07BEC
:100F50008DF82000A07B8DF82100E07C8DF8220028
:100F6000A07C8DF82300607C8DF824000020049084
:100F700005900690A07D8DF81000607D8DF8110021
:100F8000207D8DF81200607E8DF81300207E8DF894
:100F90001400E07D8DF81500207F8DF81600E07EAE
:100FA0008DF81700A07E8DF81800002001900290A7
:100FB0000390E07F8DF80400A07F8DF80500607F2E
:100FC0008DF8060094F822008DF8070094F82100AF
:100FD0008DF8080094F820008DF8090094F8250099
:100FE0008DF80A0094F824008DF80B0094F8230083
:100FF0008DF80C00012E06D0022E12D0032E1ED02A
:10100000042E38D129E0FFF7C6FE002504E00AA926
:10101000485D00F05BF86D1C0C2DF8DBFFF7C0FE9F
:1010200037E0FFF7B8FE002504E007A9485D00F0AF
:101030004DF86D1C0C2DF8DBFFF7B2FE29E0FFF731
:10104000AAFE002504E004A9485D00F03FF86D1CED
:101050000C2DF8DBFFF7A4FE1BE0FFF79CFE00253C
:1010600004E001A9485D00F031F86D1C0C2DF8DB9F
:10107000FFF796FE0DE0FFF78EFE002504E00DA9B8
:10108000485D00F023F86D1C0C2DF8DBFFF788FE9F
:1010900000BF00BF10B070BD70B50446A5B20121FD
:1010A0000948FFF7B5FB29460748FFF7F1FC03E0C5
:1010B0000548FFF7E1FC0546012DF9DC0021024857
:1010C000FFF7A6FB70BD00000004004070B50546A8
:1010D0000F2416E045FA04F000F0010280210A48CE
:1010E000FFF796F920210848FFF785F908B9012094
:1010F00000E000200646324620210348FFF788F929
:10110000641E002CE6DA70BD000801402C110008B6
:1011100000000020380000002801000864110008C9
:1011200038000020480A00004401000800000000C8
:1011300000000000000000000000000000000102AC
:10114000030401020304060708090204060800005C
:1011500000A24A0400000000000000000102030495
:04116000060708096D
:04000005080000ED02
:00000001FF
